:100000000C942A000C94ED0A0C94200B0C94530BC6
:100010000C9458100C940F100C9447000C9447004B
:100020000C9447000C9447000C94EE0E0C94A50E13
:100030000C9447000C9447000C9447000C94470024
:100040000C9447000C9447000C9447000C94470014
:100050000C94470011241FBECFE5D8E0DEBFCDBF12
:1000600010E0A8E6B0E001C01D92A838B107E1F7A2
:1000700010E0A0E6B0E0E0E2F1E302C005900D92EE
:10008000A836B107D9F70E9477130C948E180C94F8
:100090000000EF92FF920F931F937B018C0120E0F1
:1000A00030E040E05FE40E94F50388238CF0C80153
:1000B000B70120E030E040E05FE40E94C1010E940F
:1000C00055049B01AC01205030404040504806C0D0
:1000D000C801B7010E9455049B01AC01B901CA01D6
:1000E0001F910F91FF90EF900895A0E0B0E0EBE733
:1000F000F0E00C945718DC012B01FA019C9192302E
:1001000008F439C1EB018881823008F433C194309E
:1001100069F4843009F02FC111969C91119789815F
:10012000981709F428C1A0E6B0E025C1843009F48D
:1001300021C18230A9F4923009F01DC19A01AD01AC
:1001400088E0EA010990AE01E90109929E0181501F
:10015000C1F7E201898111969C918923818308C1AD
:10016000923009F407C112962D903C901397EB0141
:100170008A819B811496AD90BD90CD90DC901797AD
:10018000EC80FD800E811F819101281B390BB90184
:1001900037FF04C066277727621B730B6032710537
:1001A0000CF061C0121613066CF537014801062EDB
:1001B00004C096948794779467940A94D2F721E0C8
:1001C00030E040E050E004C0220F331F441F551FB1
:1001D0006A95D2F721503040404050402E213F21B7
:1001E00040235123211531054105510521F021E01E
:1001F00030E040E050E079018A01E628F72808293C
:1002000019293CC0232BD1F1260E371E350146019A
:10021000062E04C096948794779467940A94D2F734
:1002200021E030E040E050E004C0220F331F441FC3
:10023000551F6A95D2F721503040404050402A2146
:100240003B214C215D21211531054105510521F04E
:1002500021E030E040E050E059016A01A628B728CB
:10026000C828D9280BC0821593052CF01C01AA249C
:10027000BB24650103C0EE24FF24870111969C91E5
:10028000D20111968C91981709F445C0992339F041
:10029000A80197012A193B094C095D0906C0A6016E
:1002A00095012E193F09400B510B57FD08C01182D3
:1002B0003382228224833583468357831DC081E0A5
:1002C00081833382228288279927DC01821B930B4A
:1002D000A40BB50B84839583A683B7830DC0220F2F
:1002E000331F441F551F24833583468357838281E0
:1002F000938101979383828324813581468157813D
:10030000DA01C9010197A109B1098F5F9F4FAF4F72
:10031000BF4328F30BC0918333822282EA0CFB1C7B
:100320000C1D1D1DE482F5820683178383E0808304
:10033000248135814681578157FF1AC0C901AA27F8
:1003400097FDA095BA2F81709070A070B0705695EF
:10035000479537952795822B932BA42BB52B848318
:100360009583A683B7838281938101969383828349
:10037000DF0101C0D201CD01CDB7DEB7E2E10C94BF
:100380007318A0E2B0E0E7ECF1E00C946318698325
:100390007A838B839C832D833E834F835887E9E048
:1003A000EE2EF12CEC0EFD1ECE010196B7010E943F
:1003B0007E058E010F5E1F4FCE010596B8010E948B
:1003C0007E058A8991E089278A8BC701B801AE0131
:1003D000475E5F4F0E9475000E94A904A096E6E068
:1003E0000C947F18A0E2B0E0E8EFF1E00C94631801
:1003F00069837A838B839C832D833E834F835887C5
:10040000F9E0EF2EF12CEC0EFD1ECE010196B701A6
:100410000E947E058E010F5E1F4FCE010596B8012A
:100420000E947E05C701B801AE01475E5F4F0E9482
:1004300075000E94A904A096E6E00C947F18A0E243
:10044000B0E0E5E2F2E00C94571869837A838B837D
:100450009C832D833E834F835887CE010196BE0136
:10046000675F7F4F0E947E05CE010596BE016F5EDD
:100470007F4F0E947E059985923088F0898982306D
:10048000C8F0943019F4823051F404C0843029F457
:10049000923081F480E690E0C6C0923049F420E0CA
:1004A0009A858A89981321E02A87CE010996BBC0D4
:1004B000823049F420E09A858A89981321E02A8BBA
:1004C000CE014196B0C02D843E844F8458886D88FB
:1004D0007E888F88988CEE24FF248701AA24BB2471
:1004E000650140E050E060E070E0E0E0F0E0C10174
:1004F00081709070892BE9F0E60CF71C081D191D1E
:100500009A01AB012A0D3B1D4C1D5D1D80E090E062
:10051000A0E0B0E0E614F7040805190520F481E036
:1005200090E0A0E0B0E0BA01A901480F591F6A1F8E
:100530007B1FAA0CBB1CCC1CDD1C97FE08C081E0F5
:1005400090E0A0E0B0E0A82AB92ACA2ADB2A3196B6
:10055000E032F10549F0660C771C881C991C569412
:10056000479437942794C3CFFA85EA892B893C892D
:100570008B859C85280F391F2E5F3F4F17C0CA01FE
:1005800081709070892B61F016950795F794E79428
:1005900080E090E0A0E0B0E8E82AF92A0A2B1B2BC3
:1005A00076956795579547952F5F3F4F77FDE7CF36
:1005B0000CC0440F551F661F771F17FD4160EE0CDE
:1005C000FF1C001F111F21503040403090E05907A0
:1005D00090E0690790E4790760F32B8F3C8FDB0193
:1005E000CA018F779070A070B07080349105A1051A
:1005F000B10561F447FD0AC0E114F10401051105DC
:1006000029F0405C5F4F6F4F7F4F40781A8EFE1786
:1006100011F081E08A8F4D8F5E8F6F8F78A383E01A
:10062000898FCE0149960E94A904A096E2E10C941C
:100630007318A8E1B0E0EFE1F3E00C945F18698370
:100640007A838B839C832D833E834F835887B9E0C5
:10065000EB2EF12CEC0EFD1ECE010196B7010E948F
:100660007E058E010F5E1F4FCE010596B8010E94D8
:100670007E052985223008F47EC03989323010F495
:10068000B8017CC08A859A8989278A87243011F02D
:10069000223031F4231709F06EC060E670E06EC0BE
:1006A000343039F41D861E861F86188A1C861B86E8
:1006B00004C0323021F484E08987B7015FC02B8504
:1006C0003C858B899C89281B390B3C872B87ED84C3
:1006D000FE840F851889AD88BE88CF88D88CEA142F
:1006E000FB040C051D0540F4EE0CFF1C001F111F40
:1006F000215030403C872B8720E030E040E050E044
:1007000080E090E0A0E0B0E460E070E0EA14FB0478
:100710000C051D0540F0282B392B4A2B5B2BEA18C2
:10072000FB080C091D09B695A79597958795EE0CC2
:10073000FF1C001F111F6F5F7F4F6F31710531F775
:10074000DA01C9018F779070A070B0708034910584
:10075000A105B10561F427FD0AC0E114F10401050A
:10076000110529F0205C3F4F4F4F5F4F20782D87B8
:100770003E874F87588BBE01675F7F4FCB010E943A
:10078000A9046896EAE00C947B18A8E1B0E0EBECD1
:10079000F3E00C94631869837A838B839C832D83A5
:1007A0003E834F83588789E0E82EF12CEC0EFD1E26
:1007B000CE010196B7010E947E058E010F5E1F4F8C
:1007C000CE010596B8010E947E058985823040F0F1
:1007D0008989823028F0C701B8010E94F60501C05E
:1007E0008FEF6896E6E00C947F18A8E1B0E0EBEF9D
:1007F000F3E00C94631869837A838B839C832D8345
:100800003E834F83588789E0E82EF12CEC0EFD1EC5
:10081000CE010196B7010E947E058E010F5E1F4F2B
:10082000CE010596B8010E947E058985823040F090
:100830008989823028F0C701B8010E94F60501C0FD
:100840008FEF6896E6E00C947F18A8E1B0E0EBE249
:10085000F4E00C94631869837A838B839C832D83E3
:100860003E834F83588789E0E82EF12CEC0EFD1E65
:10087000CE010196B7010E947E058E010F5E1F4FCB
:10088000CE010596B8010E947E058985823040F030
:100890008989823028F0C701B8010E94F60501C09D
:1008A00081E06896E6E00C947F18ACE0B0E0EBE500
:1008B000F4E00C94671869837A838B839C83CE0160
:1008C0000196BE016B5F7F4F0E947E058D81823055
:1008D00061F1823050F1843021F48E81882351F10E
:1008E0002EC02F81388537FD20C06E812F31310514
:1008F0001CF06623F9F023C08EE190E0821B930B7D
:1009000029853A854B855C8504C056954795379572
:1009100027958A95D2F76623B1F05095409530958A
:1009200021953F4F4F4F5F4F0EC020E030E040E039
:1009300050E009C02FEF3FEF4FEF5FE704C020E02A
:1009400030E040E050E8B901CA012C96E2E00C9496
:100950008318DF92EF92FF920F931F93FC01E480C4
:10096000F58006811781D1808081823048F480E053
:1009700090E0A0E1B0E0E82AF92A0A2B1B2BA5C0E1
:10098000843009F49FC0823021F4EE24FF248701D3
:1009900005C0E114F1040105110519F4E0E0F0E0EF
:1009A00096C0628173819FEF623879070CF05BC05B
:1009B00022E83FEF261B370B2A3131052CF020E0CF
:1009C00030E040E050E02AC0B801A701022E04C088
:1009D00076956795579547950A94D2F781E090E010
:1009E000A0E0B0E004C0880F991FAA1FBB1F2A9582
:1009F000D2F70197A109B1098E219F21A023B1232C
:100A00000097A105B10521F081E090E0A0E0B0E001
:100A10009A01AB01282B392B4A2B5B2BDA01C90138
:100A20008F779070A070B07080349105A105B105EA
:100A300039F427FF09C0205C3F4F4F4F5F4F04C080
:100A4000215C3F4F4F4F5F4FE0E0F0E02030A0E0EF
:100A50003A07A0E04A07A0E45A0710F0E1E0F0E00E
:100A600079018A0127C06038710564F5FB01E158FE
:100A7000FF4FD801C7018F779070A070B07080349D
:100A80009105A105B10539F4E7FE0DC080E490E0C1
:100A9000A0E0B0E004C08FE390E0A0E0B0E0E80E9A
:100AA000F91E0A1F1B1F17FF05C016950795F7941F
:100AB000E794319687E016950795F794E7948A9521
:100AC000D1F705C0EE24FF248701EFEFF0E06E2F91
:100AD000679566276795902F9F77D794DD24D794E5
:100AE0008E2F8695492F462B582F5D29B701CA01B5
:100AF0001F910F91FF90EF90DF900895FC01DB01B3
:100B0000408151812281622F6F7770E0221F22275E
:100B1000221F9381892F880F822B282F30E0991F65
:100B20009927991F11969C93119721153105A9F5C5
:100B3000411551056105710511F482E037C082E865
:100B40009FEF13969C938E9312979A01AB0167E0E7
:100B5000220F331F441F551F6A95D1F783E08C93F2
:100B60000DC0220F331F441F551F12968D919C916B
:100B70001397019713969C938E931297203080E0E1
:100B8000380780E0480780E4580758F314962D93FF
:100B90003D934D935C93179708952F3F310579F45A
:100BA000411551056105710519F484E08C93089590
:100BB00064FF03C081E08C9312C01C9210C02F57B9
:100BC000304013963C932E93129783E08C9387E0EA
:100BD000440F551F661F771F8A95D1F770641496CE
:100BE0004D935D936D937C93179708951F93DC014C
:100BF000FB019C91923008F447C08081823008F458
:100C000043C0943051F411961C91843099F5818140
:100C1000682F70E0611B71093FC0843021F0923071
:100C200031F48230B9F18181882389F12DC0119688
:100C30001C9111978230F1F081811817D9F4129626
:100C40002D913C911397828193818217930794F0A1
:100C500028173907BCF014968D919D910D90BC9189
:100C6000A02D2481358146815781281739074A07ED
:100C70005B0718F4112341F00AC082179307A407F9
:100C8000B50740F4112319F061E070E005C06FEF83
:100C90007FEF02C060E070E0CB011F910895DF9309
:100CA000CF93CDB7DEB7EAE3F0E08FEF8083E7E3E1
:100CB000F0E08FEF8083E4E3F0E08FEF8083E1E307
:100CC000F0E080EF8083EBE3F0E01082E8E3F0E017
:100CD0001082E5E3F0E01082E2E3F0E08CE0808354
:100CE000CF91DF910895DF93CF93CDB7DEB72D97E6
:100CF0000FB6F894DEBF0FBECDBF89836A834B83E6
:100D00008981282F30E03D872C878C859D85813017
:100D1000910509F44FC02C853D85223031052CF416
:100D20008C859D85009771F0EBC02C853D85223028
:100D3000310509F477C08C859D858330910509F4D0
:100D4000A9C0DEC08B81282F30E03B872A878A85A7
:100D50009B850097D1F02A853B852130310509F02C
:100D6000CFC0AAE3B0E0EAE3F0E08081482F8A81B7
:100D7000282F30E081E090E0022E02C0880F991FFA
:100D80000A94E2F7842B8C93BBC0AAE3B0E0EAE3B9
:100D9000F0E08081482F8A81282F30E081E090E0C8
:100DA000022E02C0880F991F0A94E2F780958423CF
:100DB0008C93A6C08B81282F30E0398728878885BF
:100DC00099850097D1F0288539852130310509F0C2
:100DD00097C0A7E3B0E0E7E3F0E08081482F8A8185
:100DE000282F30E081E090E0022E02C0880F991F8A
:100DF0000A94E2F7842B8C9383C0A7E3B0E0E7E387
:100E0000F0E08081482F8A81282F30E081E090E057
:100E1000022E02C0880F991F0A94E2F7809584235E
:100E20008C936EC08B81282F30E03F832E838E8180
:100E30009F810097D1F02E813F812130310509F04B
:100E40005FC0A4E3B0E0E4E3F0E08081482F8A8152
:100E5000282F30E081E090E0022E02C0880F991F19
:100E60000A94E2F7842B8C934BC0A4E3B0E0E4E354
:100E7000F0E08081482F8A81282F30E081E090E0E7
:100E8000022E02C0880F991F0A94E2F780958423EE
:100E90008C9336C08B81282F30E03D832C838C814E
:100EA0009D810097C9F02C813D812130310541F5AC
:100EB000A1E3B0E0E1E3F0E08081482F8A81282FB0
:100EC00030E081E090E0022E02C0880F991F0A9462
:100ED000E2F7842B8C9314C0A1E3B0E0E1E3F0E0EF
:100EE0008081482F8A81282F30E081E090E0022E17
:100EF00002C0880F991F0A94E2F7809584238C938F
:100F00002D960FB6F894DEBF0FBECDBFCF91DF9107
:100F10000895DF93CF93CDB7DEB72D970FB6F89432
:100F2000DEBF0FBECDBF89836A834B838981282FA3
:100F300030E03D872C878C859D858130910509F4B3
:100F40004FC02C853D85223031052CF48C859D8544
:100F5000009771F0EBC02C853D852230310509F4F6
:100F600077C08C859D858330910509F4A9C0DEC0CA
:100F70008B81282F30E03B872A878A859B850097C5
:100F8000D1F02A853B852130310509F0CFC0ABE394
:100F9000B0E0EBE3F0E08081482F8A81282F30E039
:100FA00081E090E0022E02C0880F991F0A94E2F7B8
:100FB000842B8C93BBC0ABE3B0E0EBE3F0E080812B
:100FC000482F8A81282F30E081E090E0022E02C075
:100FD000880F991F0A94E2F7809584238C93A6C00A
:100FE0008B81282F30E0398728878885998500975D
:100FF000D1F0288539852130310509F097C0A8E363
:10100000B0E0E8E3F0E08081482F8A81282F30E0CB
:1010100081E090E0022E02C0880F991F0A94E2F747
:10102000842B8C9383C0A8E3B0E0E8E3F0E08081F8
:10103000482F8A81282F30E081E090E0022E02C004
:10104000880F991F0A94E2F7809584238C936EC0D1
:101050008B81282F30E03F832E838E819F810097E4
:10106000D1F02E813F812130310509F05FC0A5E329
:10107000B0E0E5E3F0E08081482F8A81282F30E05E
:1010800081E090E0022E02C0880F991F0A94E2F7D7
:10109000842B8C934BC0A5E3B0E0E5E3F0E08081C6
:1010A000482F8A81282F30E081E090E0022E02C094
:1010B000880F991F0A94E2F7809584238C9336C099
:1010C0008B81282F30E03D832C838C819D8100977C
:1010D000C9F02C813D812130310541F5A2E3B0E01A
:1010E000E2E3F0E08081482F8A81282F30E081E020
:1010F00090E0022E02C0880F991F0A94E2F7842B19
:101100008C9314C0A2E3B0E0E2E3F0E08081482FCA
:101110008A81282F30E081E090E0022E02C0880F03
:10112000991F0A94E2F7809584238C932D960FB62D
:10113000F894DEBF0FBECDBFCF91DF910895DF934E
:10114000CF9300D000D00F92CDB7DEB78A836B83E8
:1011500019828A81282F30E03D832C834C815D8168
:101160004130510541F18C819D818230910534F4EB
:101170002C813D812115310561F052C04C815D818A
:101180004230510551F18C819D8183309105B9F137
:1011900047C0E9E3F0E08081282F30E08B81882F81
:1011A00090E0A90102C0559547958A95E2F7CA01DA
:1011B0008170898335C0E6E3F0E08081282F30E03C
:1011C0008B81882F90E0A90102C0559547958A959B
:1011D000E2F7CA018170898323C0E3E3F0E08081F4
:1011E000282F30E08B81882F90E0A90102C055950F
:1011F00047958A95E2F7CA018170898311C0E0E3BF
:10120000F0E08081282F30E08B81882F90E0A901C9
:1012100002C0559547958A95E2F7CA018170898386
:1012200089810F900F900F900F900F90CF91DF91C9
:101230000895DF93CF9300D000D0CDB7DEB7898378
:101240006A838981282F30E03C832B838B819C81AA
:1012500081309105D1F02B813C81223031052CF475
:101260008B819C81009761F01EC02B813C812230D4
:10127000310581F08B819C818330910581F013C011
:10128000EBE3F0E08A8180830EC0E8E3F0E08A813E
:10129000808309C0E5E3F0E08A81808304C0E2E353
:1012A000F0E08A8180830F900F900F900F90CF9184
:1012B000DF910895DF93CF9300D000D0CDB7DEB794
:1012C00089836A838981282F30E03C832B838B813B
:1012D0009C8181309105D1F02B813C8122303105F8
:1012E0002CF48B819C81009761F01EC02B813C8186
:1012F0002230310581F08B819C818330910581F012
:1013000013C0EAE3F0E08A8180830EC0E7E3F0E0F7
:101310008A81808309C0E4E3F0E08A81808304C08D
:10132000E1E3F0E08A8180830F900F900F900F909F
:10133000CF91DF910895DF93CF9300D000D000D0FC
:10134000CDB7DEB789836A838A81843008F05AC0BA
:101350008981282F30E03E832D838D819E818130CD
:101360009105D1F02D813E812230310561F18D81D1
:101370009E81009709F046C0A5E5B0E0E5E5F0E004
:1013800080818D7F8C93A5E5B0E0E5E5F0E090816C
:101390008A81892B8C9336C0A5E5B0E0E5E5F0E0C5
:1013A0008081877F8C93A5E5B0E0E5E5F0E0808162
:1013B000282F8A81882F90E0880F991F880F991F06
:1013C000822B8C931FC08A81282F30E03C832B8393
:1013D0008B819C818230910531F02B813C812330BF
:1013E000310549F00FC0A4E5B0E0E4E5F0E080810C
:1013F0008F7B8C9307C0A4E5B0E0E4E5F0E080814A
:1014000080648C9326960FB6F894DEBF0FBECDBFD6
:10141000CF91DF910895DF93CF9300D00F92CDB796
:10142000DEB789838981282F30E03B832A838A8134
:101430009B818130910589F02A813B8122303105E1
:10144000A1F08A819B810097B9F4ABE5B0E0EBE5B0
:10145000F0E0808180648C930FC0ABE5B0E0EBE5F9
:10146000F0E0808180688C9307C0ABE5B0E0EBE5ED
:10147000F0E0808180628C930F900F900F90CF915D
:10148000DF910895DF93CF9300D00F92CDB7DEB7F1
:1014900089838981282F30E03B832A838A819B813D
:1014A0008130910589F02A813B8122303105A1F0FC
:1014B0008A819B810097B9F4ABE5B0E0EBE5F0E001
:1014C00080818F7B8C930FC0ABE5B0E0EBE5F0E063
:1014D00080818F778C9307C0ABE5B0E0EBE5F0E05F
:1014E00080818F7D8C930F900F900F90CF91DF9123
:1014F0000895DF93CF9300D00F92CDB7DEB78983E5
:101500008981282F30E03B832A838A819B81813027
:10151000910589F02A813B8122303105A1F08A8131
:101520009B810097B9F4AAE5B0E0EAE5F0E080819C
:1015300080648C930FC0AAE5B0E0EAE5F0E080811A
:1015400080688C9307C0AAE5B0E0EAE5F0E080810E
:1015500080628C930F900F900F90CF91DF91089540
:10156000DF93CF9300D000D00F92CDB7DEB79A8330
:1015700089836B8389819A81009739F18B81282F28
:1015800030E03D832C838C819D818130910581F0F9
:101590002C813D812230310591F08C819D81009715
:1015A000A1F489819A8190936900809368000DC0AD
:1015B00089819A8190936B0080936A0006C089812B
:1015C0009A8190936D0080936C000F900F900F9014
:1015D0000F900F90CF91DF9108951F920F920FB649
:1015E0000F9211242F933F934F935F936F937F93A9
:1015F0008F939F93AF93BF93EF93FF93DF93CF931B
:10160000CDB7DEB78091680090916900009729F00E
:10161000E0916800F09169000995CF91DF91FF9109
:10162000EF91BF91AF919F918F917F916F915F915A
:101630004F913F912F910F900FBE0F901F901895D3
:101640001F920F920FB60F9211242F933F934F9337
:101650005F936F937F938F939F93AF93BF93EF931A
:10166000FF93DF93CF93CDB7DEB780916A0090915F
:101670006B00009729F0E0916A00F0916B000995EA
:10168000CF91DF91FF91EF91BF91AF919F918F919A
:101690007F916F915F914F913F912F910F900FBE6E
:1016A0000F901F9018951F920F920FB60F92112452
:1016B0002F933F934F935F936F937F938F939F935A
:1016C000AF93BF93EF93FF93DF93CF93CDB7DEB785
:1016D00080916C0090916D00009729F0E0916C0072
:1016E000F0916D000995CF91DF91FF91EF91BF913E
:1016F000AF919F918F917F916F915F914F913F91AA
:101700002F910F900FBE0F901F901895DF93CF93DE
:10171000CDB7DEB7AFE5B0E0EFE5F0E080818068FF
:101720008C93CF91DF910895DF93CF93CDB7DEB740
:10173000AFE5B0E0EFE5F0E080818F778C93CF915B
:10174000DF910895DF93CF93CDB7DEB763970FB6E0
:10175000F894DEBF0FBECDBF898B8989282F30E07A
:101760003B8B2A8B8A899B89009731F02A893B8998
:1017700021303105B1F09CC08CEB92E0988B8F87C3
:1017800009C08F8598890E946D0F8F859889019671
:10179000988B8F878F8598893AE08D38930788F3E7
:1017A00087C080EB94E0988B8F877BC08F8598896A
:1017B0000E947F0F80E090E0A0E0B0E48B879C87E0
:1017C000AD87BE876B857C858D859E8520E030E06A
:1017D0004AEF54E40E941F02DC01CB018F839887FB
:1017E000A987BA876F81788589859A8520E030E05E
:1017F00040E85FE30E94250488232CF481E090E018
:101800009E838D833FC06F81788589859A8520E08E
:101810003FEF4FE757E40E94C50318164CF56B8560
:101820007C858D859E8520E030E040E251E40E9479
:101830001F02DC01CB01BC01CD010E944900DC018B
:10184000CB019E838D830FC088EC90E09C838B83BB
:101850008B819C810197F1F79C838B838D819E8185
:1018600001979E838D838D819E81009769F714C0B7
:101870006F81788589859A850E944900DC01CB01BA
:101880009E838D838D819E819A83898389819A81AC
:101890000197F1F79A8389838F8598890196988BB0
:1018A0008F878F85988928E08939920708F47ECF41
:1018B00063960FB6F894DEBF0FBECDBFCF91DF9118
:1018C0000895DF93CF93CDB7DEB763970FB6F89443
:1018D000DEBF0FBECDBF898B8989282F30E03B8BBF
:1018E0002A8B8A899B89009731F02A893B8921308C
:1018F0003105B1F09CC08CE89AE0988B8F8709C0C5
:101900008F8598890E946D0F8F8598890197988B94
:101910008F878F85988932E08C3B930788F787C043
:1019200088E998E0988B8F877BC08F8598890E9483
:101930007F0F80E090E0A0E0B0E48B879C87AD87CC
:10194000BE876B857C858D859E8520E030E04AEFE3
:1019500054E40E941F02DC01CB018F839887A98782
:10196000BA876F81788589859A8520E030E040E8E4
:101970005FE30E94250488232CF481E090E09E839D
:101980008D833FC06F81788589859A8520E03FEF00
:101990004FE757E40E94C50318164CF56B857C850C
:1019A0008D859E8520E030E040E251E40E941F02D8
:1019B000DC01CB01BC01CD010E944900DC01CB015F
:1019C0009E838D830FC088EC90E09C838B838B81FA
:1019D0009C810197F1F79C838B838D819E81019778
:1019E0009E838D838D819E81009769F714C06F81DE
:1019F000788589859A850E944900DC01CB019E8308
:101A00008D838D819E819A83898389819A810197B3
:101A1000F1F79A8389838F8598890197988B8F87AF
:101A20008F85988924E0803B920708F07ECF6396EB
:101A30000FB6F894DEBF0FBECDBFCF91DF910895F2
:101A4000DF93CF93CDB7DEB76F970FB6F894DEBFB5
:101A50000FBECDBF8D8F8D8D282F30E03F8F2E8F05
:101A60008E8D9F8D009739F02E8D3F8D2130310561
:101A700009F478C0EDC084EA96E00E946D0F80E022
:101A800090E0A0E7B1E4898F9A8FAB8FBC8F698D0E
:101A90007A8D8B8D9C8D20E030E04AEF54E40E94DB
:101AA0001F02DC01CB018D8B9E8BAF8BB88F6D89B4
:101AB0007E898F89988D20E030E040E85FE30E94C6
:101AC000250488232CF481E090E09C8B8B8B3FC015
:101AD0006D897E898F89988D20E03FEF4FE757E42D
:101AE0000E94C50318164CF5698D7A8D8B8D9C8DDF
:101AF00020E030E040E251E40E941F02DC01CB0113
:101B0000BC01CD010E944900DC01CB019C8B8B8B79
:101B10000FC088EC90E09A8B898B89899A8901970C
:101B2000F1F79A8B898B8B899C8901979C8B8B8B86
:101B30008B899C89009769F78BC06D897E898F8915
:101B4000988D0E944900DC01CB019C8B8B8B8B898B
:101B50009C89988B8F878F8598890197F1F7988B4F
:101B60008F8776C084EA96E00E947F0F80E090E045
:101B7000A0E2B1E48B879C87AD87BE876B857C85AF
:101B80008D859E8520E030E04AEF54E40E941F02DC
:101B9000DC01CB018F839887A987BA876F8178850D
:101BA00089859A8520E030E040E85FE30E942504C3
:101BB00088232CF481E090E09E838D833FC06F8169
:101BC000788589859A8520E03FEF4FE757E40E94AA
:101BD000C50318164CF56B857C858D859E8520E0A8
:101BE00030E040E251E40E941F02DC01CB01BC0165
:101BF000CD010E944900DC01CB019E838D830FC083
:101C000088EC90E09C838B838B819C810197F1F71A
:101C10009C838B838D819E8101979E838D838D8193
:101C20009E81009769F714C06F81788589859A85B0
:101C30000E944900DC01CB019E838D838D819E81B2
:101C40009A83898389819A810197F1F79A8389839D
:101C50006F960FB6F894DEBF0FBECDBFCF91DF9168
:101C60000895DF93CF93CDB7DEB7A3E5B0E0E3E50A
:101C7000F0E08081877F8C93A3E5B0E0E3E5F0E0BE
:101C8000808180648C93A9E5B0E0E9E5F0E0808193
:101C900082608C93ECE5F0E083E68083A3E5B0E01E
:101CA000E3E5F0E08081887C8C93A3E5B0E0E3E598
:101CB000F0E0808182608C93CF91DF910895DF9373
:101CC000CF93CDB7DEB7A3E5B0E0E3E5F0E08081E8
:101CD000887F8C93A3E5B0E0E3E5F0E080818C930E
:101CE000CF91DF910895DF93CF930F92CDB7DEB7F9
:101CF0008983E2E5F0E0898180830F90CF91DF91C5
:101D00000895DF93CF930F92CDB7DEB78983ECE5CB
:101D1000F0E0898180830F90CF91DF910895DF9368
:101D2000CF9300D0CDB7DEB79A83898389819A811A
:101D3000009731F089819A8190936F0080936E00B3
:101D40000F900F90CF91DF9108951F920F920FB6D1
:101D50000F9211242F933F934F935F936F937F9331
:101D60008F939F93AF93BF93EF93FF93DF93CF93A3
:101D7000CDB7DEB780916E0090916F00009729F08B
:101D8000E0916E00F0916F000995CF91DF91FF9186
:101D9000EF91BF91AF919F918F917F916F915F91E3
:101DA0004F913F912F910F900FBE0F901F9018955C
:101DB000DF93CF9300D0CDB7DEB79A838983898133
:101DC0009A81009731F089819A8190937100809374
:101DD00070000F900F90CF91DF9108951F920F9296
:101DE0000FB60F9211242F933F934F935F936F93EE
:101DF0007F938F939F93AF93BF93EF93FF93DF9363
:101E0000CF93CDB7DEB780917000909171000097AD
:101E100029F0E0917000F09171000995CF91DF9168
:101E2000FF91EF91BF91AF919F918F917F916F91B2
:101E30005F914F913F912F910F900FBE0F901F9088
:101E40001895DF93CF93CDB7DEB7AFE4B0E0EFE402
:101E5000F0E080818E7F8C93AFE4B0E0EFE4F0E0BF
:101E6000808182608C93AEE4B0E0EEE4F0E08081AB
:101E700088608C93AEE4B0E0EEE4F0E080818061B5
:101E80008C93AFE4B0E0EFE4F0E0808183788C9352
:101E9000AFE4B0E0EFE4F0E0808180688C93AFE4E1
:101EA000B0E0EFE4F0E0808180628C93E6E4F0E063
:101EB0008FE19EE491838083AEE4B0E0EEE4F0E055
:101EC000808188798C93AEE4B0E0EEE4F0E080812C
:101ED00082608C93CF91DF910895DF93CF9300D0F0
:101EE000CDB7DEB79A838983EAE4F0E089819A81ED
:101EF000918380830F900F90CF91DF910895DF93AE
:101F0000CF9300D0CDB7DEB79A838983E8E4F0E0C1
:101F100089819A81918380830F900F90CF91DF9177
:101F20000895DF93CF93CDB7DEB7AFE4B0E0EFE431
:101F3000F0E08081887F8C93AEE4B0E0EEE4F0E0E6
:101F40008081887F8C93CF91DF910895DF93CF9329
:101F5000CDB7DEB7A5E4B0E0E5E4F0E080818860CD
:101F60008C93A5E4B0E0E5E4F0E0808180648C939C
:101F7000A5E4B0E0E5E4F0E08081887C8C93A5E402
:101F8000B0E0E5E4F0E0808183628C93CF91DF9153
:101F90000895DF93CF93CDB7DEB7A5E4B0E0E5E4D5
:101FA000F0E08081887F8C93A5E4B0E0E5E4F0E088
:101FB00080818C93CF91DF910895DF93CF930F921F
:101FC000CDB7DEB78983E2E5F0E0898180830F90A9
:101FD000CF91DF910895DF93CF930F92CDB7DEB706
:101FE0008983E3E4F0E0898180830F90CF91DF91D2
:101FF0000895DF93CF9300D0CDB7DEB79A8389835E
:1020000089819A81009731F089819A819093730038
:10201000809372000F900F90CF91DF9108951F92DF
:102020000F920FB60F9211242F933F934F935F930C
:102030006F937F938F939F93AF93BF93EF93FF9390
:10204000DF93CF93CDB7DEB780917200909173008C
:10205000009729F0E0917200F09173000995CF91FB
:10206000DF91FF91EF91BF91AF919F918F917F9100
:102070006F915F914F913F912F910F900FBE0F90F5
:102080001F901895DF93CF9300D0CDB7DEB79A831A
:10209000898389819A81009731F089819A8190930F
:1020A0007500809374000F900F90CF91DF91089589
:1020B0001F920F920FB60F9211242F933F934F93BD
:1020C0005F936F937F938F939F93AF93BF93EF93A0
:1020D000FF93DF93CF93CDB7DEB7809174009091DB
:1020E0007500009729F0E0917400F0917500099552
:1020F000CF91DF91FF91EF91BF91AF919F918F9120
:102100007F916F915F914F913F912F910F900FBEF3
:102110000F901F901895DF93CF93CDB7DEB72E9712
:102120000FB6F894DEBF0FBECDBF0E94860B0E9493
:10213000310E87E093E10E94D80E8DE293E161E0D9
:102140000E94B00A81E061E00E949B0981E00E9448
:102150000B0A80E090E0A0E2B1E48B879C87AD871A
:10216000BE876B857C858D859E8520E030E04AEFBB
:1021700054E40E941F02DC01CB018F839887A9875A
:10218000BA876F81788589859A8520E030E040E8BC
:102190005FE30E94250488232CF481E090E09E8375
:1021A0008D833FC06F81788589859A8520E03FEFD8
:1021B0004FE757E40E94C50318164CF56B857C85E4
:1021C0008D859E8520E030E040E251E40E941F02B0
:1021D000DC01CB01BC01CD010E944900DC01CB0137
:1021E0009E838D830FC088EC90E09C838B838B81D2
:1021F0009C810197F1F79C838B838D819E81019750
:102200009E838D838D819E81009769F714C06F81B5
:10221000788589859A850E944900DC01CB019E83DF
:102220008D838D819E819A83898389819A8101978B
:10223000F1F79A8389832E960FB6F894DEBF0FBE0E
:10224000CDBFCF91DF910895DF93CF93CDB7DEB7A8
:1022500068970FB6F894DEBF0FBECDBF82E060E096
:1022600041E00E94890780E090E0A0E2B1E48D8B1C
:102270009E8BAF8BB88F6D897E898F89988D2BEA65
:102280003AEA4AE250E40E941F02DC01CB01898B4A
:102290009A8BAB8BBC8B69897A898B899C8920E06E
:1022A00030E040E85FE30E94250488231CF481E0CD
:1022B000888B91C069897A898B899C8920E030E07C
:1022C0004FE753E40E94C50318160CF07BC06D89DC
:1022D0007E898F89988D20E030E04AE754E40E949F
:1022E0001903DC01CB018C879D87AE87BF876C8586
:1022F0007D858E859F8520E030E04AEF54E40E9482
:102300001F02DC01CB0188879987AA87BB87688574
:1023100079858A859B8520E030E040E85FE30E9474
:10232000250488232CF481E090E09F838E833FC0B6
:10233000688579858A859B8520E03FEF4FE757E4E4
:102340000E94C50318164CF56C857D858E859F858A
:1023500020E030E040E251E40E941F02DC01CB01AA
:10236000BC01CD010E944900DC01CB019F838E831B
:102370000FC088EC90E09D838C838C819D810197B8
:10238000F1F79D838C838E819F8101979F838E833C
:102390008E819F81009769F724C0688579858A8539
:1023A0009B850E944900DC01CB019F838E838E8137
:1023B0009F819B838A838A819B810197F1F79B830D
:1023C0008A830FC069897A898B899C890E94490018
:1023D000DC01CB01888B8889898389818A95F1F713
:1023E000898382E060E040E00E94890780917E005E
:1023F00090917F00A0918000B09181002DE130E0AC
:1024000040E050E0BC01CD010E943518DA01C9015D
:10241000909377008093760080917600909177007A
:1024200068960FB6F894DEBF0FBECDBFCF91DF9197
:102430000895DF93CF93CDB7DEB76B970FB6F894BF
:10244000DEBF0FBECDBF1B8E1A8E198E1B8ECAC06B
:102450000E9424119C01898D9A8D820F931F9A8F5F
:10246000898F80E090E0A8E4B2E48D8B9E8BAF8BE7
:10247000B88F6D897E898F89988D2BEA3AEA4AE276
:1024800050E40E941F02DC01CB01898B9A8BAB8B3D
:10249000BC8B69897A898B899C8920E030E040E88F
:1024A0005FE30E94250488231CF481E0888B91C09F
:1024B00069897A898B899C8920E030E04FE753E471
:1024C0000E94C50318160CF07BC06D897E898F8928
:1024D000988D20E030E04AE754E40E941903DC01C3
:1024E000CB018C879D87AE87BF876C857D858E8568
:1024F0009F8520E030E04AEF54E40E941F02DC0197
:10250000CB0188879987AA87BB87688579858A8563
:102510009B8520E030E040E85FE30E9425048823AB
:102520002CF481E090E09F838E833FC0688579859D
:102530008A859B8520E03FEF4FE757E40E94C50363
:1025400018164CF56C857D858E859F8520E030E0E2
:1025500040E251E40E941F02DC01CB01BC01CD012D
:102560000E944900DC01CB019F838E830FC088EC61
:1025700090E09D838C838C819D810197F1F79D83F1
:102580008C838E819F8101979F838E838E819F8113
:10259000009769F724C0688579858A859B850E94A4
:1025A0004900DC01CB019F838E838E819F819B83B9
:1025B0008A838A819B810197F1F79B838A830FC06D
:1025C00069897A898B899C890E944900DC01CB0149
:1025D000888B8889898389818A95F1F789838B8D96
:1025E0008F5F8B8F8B8D843108F432CF898D9A8DDC
:1025F00024E130E0B9010E942118CB016B960FB69F
:10260000F894DEBF0FBECDBFCF91DF910895DF9369
:10261000CF93CDB7DEB7809178008130D9F4809127
:102620007A0090917B00A0917C00B0917D00019692
:10263000A11DB11D80937A0090937B00A0937C0034
:10264000B0937D0010927E0010927F001092800067
:1026500010928100CF91DF910895DF93CF93CDB792
:10266000DEB780917900882351F481E0809379006E
:1026700080E00E94730E81E08093780035C08091E5
:102680007900813089F5109279001092780080915C
:102690007A0090917B00A0917C00B0917D0024E6AF
:1026A00030E040E050E0BC01CD010E9402189B01E7
:1026B000AC01E2E5F0E08081882F90E0A0E0B0E09E
:1026C000820F931FA41FB51F80937E0090937F00FD
:1026D000A0938000B093810010927A0010927B004A
:1026E00010927C0010927D00CF91DF910895DF93CE
:1026F000CF93CDB7DEB76C970FB6F894DEBF0FBEA1
:10270000CDBF0E944F060E948B100E94210F80E0D7
:102710000E94200D81E00E94200D80E090E0AAEF51
:10272000B3E4898F9A8FAB8FBC8F698D7A8D8B8D37
:102730009C8D20E030E04AEF54E40E941F02DC014F
:10274000CB018D8B9E8BAF8BB88F6D897E898F89E6
:10275000988D20E030E040E85FE30E942504882364
:102760002CF481E090E09C8B8B8B3FC06D897E893F
:102770008F89988D20E03FEF4FE757E40E94C50313
:1027800018164CF5698D7A8D8B8D9C8D20E030E08C
:1027900040E251E40E941F02DC01CB01BC01CD01EB
:1027A0000E944900DC01CB019C8B8B8B0FC088EC15
:1027B00090E09A8B898B89899A890197F1F79A8B96
:1027C000898B8B899C8901979C8B8B8B8B899C89AE
:1027D000009769F714C06D897E898F89988D0E9452
:1027E0004900DC01CB019C8B8B8B8B899C89988B5E
:1027F0008F878F8598890197F1F7988B8F870E9433
:1028000019129093830080938200809182009091AE
:1028100083008031910508F483C00E94D5140E9482
:102820009F1480E090E0AAEFB3E48B879C87AD878C
:10283000BE876B857C858D859E8520E030E04AEFE4
:1028400054E40E941F02DC01CB018F839887A98783
:10285000BA876F81788589859A8520E030E040E8E5
:102860005FE30E94250488232CF481E090E09E839E
:102870008D833FC06F81788589859A8520E03FEF01
:102880004FE757E40E94C50318164CF56B857C850D
:102890008D859E8520E030E040E251E40E941F02D9
:1028A000DC01CB01BC01CD010E944900DC01CB0160
:1028B0009E838D830FC088EC90E09C838B838B81FB
:1028C0009C810197F1F79C838B838D819E81019779
:1028D0009E838D838D819E81009769F714C06F81DF
:1028E000788589859A850E944900DC01CB019E8309
:1028F0008D838D819E819A83898389819A810197B5
:10290000F1F79A8389830E9426150E940B150E9475
:10291000D7170E94191290938300809382006FCF83
:1029200080918200909183008031910508F067CFFB
:102930000E940B150E9426150E94A71760CFDF93F7
:10294000CF93CDB7DEB780E061E040E00E94890719
:1029500080E063E040E00E94890780E062E041E0BF
:102960000E94890780E060E041E00E948907CF91E2
:10297000DF910895DF93CF93CDB7DEB780E062E0BB
:1029800040E00E94890780E060E040E00E94890703
:1029900080E063E041E00E94890780E061E041E07F
:1029A0000E948907CF91DF910895DF93CF93CDB730
:1029B000DEB780E066E040E00E94890780E067E0E3
:1029C00040E00E94890780E065E041E00E948907BD
:1029D00080E064E041E00E948907CF91DF91089593
:1029E000DF93CF93CDB7DEB780E064E040E00E9494
:1029F000890780E065E040E00E94890780E067E0A9
:102A000041E00E94890780E066E041E00E9489077A
:102A1000CF91DF910895DF93CF93CDB7DEB780E0FC
:102A200060E040E00E94890780E061E040E00E94B1
:102A3000890780E062E040E00E94890780E063E06F
:102A400040E00E948907CF91DF910895DF93CF93F3
:102A5000CDB7DEB780E064E040E00E94890780E007
:102A600065E040E00E94890780E066E040E00E9467
:102A7000890780E067E040E00E948907CF91DF91FD
:102A80000895DF93CF9300D0CDB7DEB71A821982B5
:102A900009C089819A8101969A8389830E94F014E2
:102AA0000E94BA1489819A8127E28131920788F3C2
:102AB0000E9426150E940B150F900F90CF91DF9169
:102AC0000895DF93CF9300D0CDB7DEB71A82198275
:102AD00009C089819A8101969A8389830E94BA14D8
:102AE0000E94D51489819A812BE18835920788F359
:102AF0000E9426150E940B150F900F90CF91DF9129
:102B00000895DF93CF9300D0CDB7DEB71A82198234
:102B100009C089819A8101969A8389830E94F01461
:102B20000E949F1489819A812BE18835920788F34E
:102B30000E9426150E940B150F900F90CF91DF91E8
:102B40000895DF93CF93CDB7DEB76C970FB6F894A7
:102B5000DEBF0FBECDBF80E00E94610C80E090E040
:102B6000AAE7B4E4898F9A8FAB8FBC8F698D7A8D79
:102B70008B8D9C8D20E030E04AEF54E40E941F02D0
:102B8000DC01CB018D8B9E8BAF8BB88F6D897E89DD
:102B90008F89988D20E030E040E85FE30E942504B3
:102BA00088232CF481E090E09C8B8B8B3FC06D8957
:102BB0007E898F89988D20E03FEF4FE757E40E9490
:102BC000C50318164CF5698D7A8D8B8D9C8D20E090
:102BD00030E040E251E40E941F02DC01CB01BC0165
:102BE000CD010E944900DC01CB019C8B8B8B0FC077
:102BF00088EC90E09A8B898B89899A890197F1F703
:102C00009A8B898B8B899C8901979C8B8B8B8B8969
:102C10009C89009769F714C06D897E898F89988D8A
:102C20000E944900DC01CB019C8B8B8B8B899C899A
:102C3000988B8F878F8598890197F1F7988B8F876D
:102C40000E941912909385008093840080E00E9476
:102C5000200D80E090E0A8ECB2E48B879C87AD87E4
:102C6000BE876B857C858D859E8520E030E04AEFB0
:102C700054E40E941F02DC01CB018F839887A9874F
:102C8000BA876F81788589859A8520E030E040E8B1
:102C90005FE30E94250488232CF481E090E09E836A
:102CA0008D833FC06F81788589859A8520E03FEFCD
:102CB0004FE757E40E94C50318164CF56B857C85D9
:102CC0008D859E8520E030E040E251E40E941F02A5
:102CD000DC01CB01BC01CD010E944900DC01CB012C
:102CE0009E838D830FC088EC90E09C838B838B81C7
:102CF0009C810197F1F79C838B838D819E81019745
:102D00009E838D838D819E81009769F714C06F81AA
:102D1000788589859A850E944900DC01CB019E83D4
:102D20008D838D819E819A83898389819A81019780
:102D3000F1F79A8389836C960FB6F894DEBF0FBEC5
:102D4000CDBFCF91DF910895DF93CF93CDB7DEB79D
:102D50006C970FB6F894DEBF0FBECDBF80E00E9427
:102D6000A20B80E090E0AAE7B4E4898F9A8FAB8F42
:102D7000BC8F698D7A8D8B8D9C8D20E030E04AEF81
:102D800054E40E941F02DC01CB018D8B9E8BAF8B24
:102D9000B88F6D897E898F89988D20E030E040E87A
:102DA0005FE30E94250488232CF481E090E09C8B53
:102DB0008B8B3FC06D897E898F89988D20E03FEF96
:102DC0004FE757E40E94C50318164CF5698D7A8DBC
:102DD0008B8D9C8D20E030E040E251E40E941F0288
:102DE000DC01CB01BC01CD010E944900DC01CB011B
:102DF0009C8B8B8B0FC088EC90E09A8B898B898998
:102E00009A890197F1F79A8B898B8B899C89019715
:102E10009C8B8B8B8B899C89009769F714C06D897B
:102E20007E898F89988D0E944900DC01CB019C8BA3
:102E30008B8B8B899C89988B8F878F85988901973D
:102E4000F1F7988B8F870E941912909387008093D7
:102E5000860080E00E94200D80E090E0A8ECB2E4C3
:102E60008B879C87AD87BE876B857C858D859E858E
:102E700020E030E04AEF54E40E941F02DC01CB0165
:102E80008F839887A987BA876F81788589859A8586
:102E900020E030E040E85FE30E94250488232CF422
:102EA00081E090E09E838D833FC06F817885898526
:102EB0009A8520E03FEF4FE757E40E94C5031816BC
:102EC0004CF56B857C858D859E8520E030E040E269
:102ED00051E40E941F02DC01CB01BC01CD010E9424
:102EE0004900DC01CB019E838D830FC088EC90E00C
:102EF0009C838B838B819C810197F1F79C838B83CF
:102F00008D819E8101979E838D838D819E81009707
:102F100069F714C06F81788589859A850E94490078
:102F2000DC01CB019E838D838D819E819A83898371
:102F300089819A810197F1F79A8389836C960FB6FC
:102F4000F894DEBF0FBECDBFCF91DF910895DF9320
:102F5000CF93CDB7DEB70E94A1150E94A416809131
:102F60008600909187009C01285D3F4F80918400EE
:102F7000909185008217930718F00E94611514C084
:102F800080918400909185009C01285D3F4F809145
:102F90008600909187002817390718F40E94811540
:102FA00003C00E944115D7CFCF91DF910895DF93E1
:102FB000CF93CDB7DEB781E00E94610C0E94F0177D
:102FC00081E00E94200D0E94F01781E00E94A20B78
:102FD0000E94F01781E00E94200DCF91DF910895AB
:102FE000DF93CF93CDB7DEB704C00E9426150E94B1
:102FF0000B1583E062E00E949F088130B1F3CF910E
:10300000DF910895629FD001739FF001829FE00DD0
:10301000F11D649FE00DF11D929FF00D839FF00D57
:10302000749FF00D659FF00D9927729FB00DE11D03
:10303000F91F639FB00DE11DF91FBD01CF011124E0
:103040000895AA1BBB1B51E107C0AA1FBB1FA617EF
:10305000B70710F0A61BB70B881F991F5A95A9F741
:1030600080959095BC01CD010895A1E21A2EAA1B6E
:10307000BB1BFD010DC0AA1FBB1FEE1FFF1FA21728
:10308000B307E407F50720F0A21BB30BE40BF50B25
:10309000661F771F881F991F1A9469F760957095AE
:1030A000809590959B01AC01BD01CF0108952F92B1
:1030B0003F924F925F926F927F928F929F92AF92C8
:1030C000BF92CF92DF92EF92FF920F931F93CF9315
:1030D000DF93CDB7DEB7CA1BDB0B0FB6F894DEBFAC
:1030E0000FBECDBF09942A88398848885F846E84D2
:1030F0007D848C849B84AA84B984C884DF80EE801C
:10310000FD800C811B81AA81B981CE0FD11D0FB624
:10311000F894DEBF0FBECDBFED010895F894FFCF48
:083120000000000000000000A7
:00000001FF
